:020000040800F2
:1000000000800120E90500083906000839060008CB
:10001000390600083906000839060008000000000B
:100020000000000000000000000000003906000889
:100030003906000800000000390600087F040008A7
:100040003906000839060008390600083906000894
:100050003906000839060008390600083906000884
:100060003906000839060008390600083906000874
:100070003906000839060008390600083906000864
:10008000390600083906000839060008000000009B
:100090000000000000000000000000003906000819
:1000A0003906000839060008390600083906000834
:1000B0003906000839060008390600083906000824
:1000C0003906000839060008390600083906000814
:1000D000390600083906000839060008000000004B
:1000E0009D050008390600083906000800000000D8
:1000F00000000000000000000000000039060008B9
:10010000000000003906000839060008390600081A
:1001100000000000000000000000000000000000DF
:1001200039060008390600083906000839060008B3
:100130003906000800000000000000000000000078
:100140000000000000000000000000003906000868
:100150003906000839060008390600083906000883
:100160003906000839060008000000000000000001
:10017000000000000000000000000000000000007F
:100180000000000039060008000000000000000028
:040190003906000824
:1001940010B5054C237833B9044B13B10448AFF3BD
:1001A40000800123237010BD000000200000000027
:1001B4008406000808B5034B1BB103490348AFF399
:1001C400008008BD00000000040000208406000830
:1001D40080B400AF054B5B69044A83F0200353618C
:1001E40000BFBD465DF8047B704700BF00000240BD
:1001F40080B483B000AF0346FB7197F90730002B3E
:100204000BDBFB7903F01F02074997F907305B0901
:10021400012000FA02F241F8232000BF0C37BD464A
:100224005DF8047B704700BF00E100E080B483B058
:1002340000AF03463960FB7197F90730002B0ADBE6
:100244003B68DAB20C4997F907301201D2B20B4479
:1002540083F800230AE03B68DAB20849FB7903F02B
:100264000F03043B1201D2B20B441A7600BF0C37C1
:10027400BD465DF8047B704700E100E000ED00E05E
:1002840080B500AF194B5B6C184A43F48043536448
:10029400174B5B69164A23F0F0035361144B5B69F7
:1002A400134A23F020035361124B1B68114A43F491
:1002B400005313600F4B5B680E4A43F400535360C2
:1002C4000C4BDB680B4A43F40053D360094B9B6827
:1002D400084A23F40053936001212820FFF7A6FF66
:1002E4002820FFF785FF00BF80BD00BF0038024013
:1002F40000380140003C014080B483B000AF0346A5
:10030400FB7197F90730002B0CDBFB7903F01F021C
:10031400074997F907305B09012000FA02F26033BC
:1003240041F8232000BF0C37BD465DF8047B7047BD
:1003340000E100E080B400AF364B5B68354A23F03F
:100344003F035360334B5B68324A43F4A853536012
:10035400304B304A5B6853602E4B5B682D4A43F048
:10036400040353602B4B1B682A4A43F48033136005
:1003740000BF284B1B6803F40033002BF9D0254B36
:100384005B68244A43F480035360224B1B68214A70
:1003940043F08073136000BF1E4B1B6803F00073AF
:1003A400002BF9D01C4B1B681B4A23F00703136076
:1003B400194B1B68184A43F480731360164B1B686F
:1003C400154A43F002031360124B9B68114A23F051
:1003D400030393600F4B9B680E4A43F00203936040
:1003E40000BF0C4B9B6803F00803002BF9D0094BAA
:1003F400084A9B689360074B9B68064A43F4805302
:100404009360044B034A9B68936000BFBD465DF84C
:10041400047B704700380240003C024080B400AFC7
:10042400044B1B680133034A136000BFBD465DF8EB
:10043400047B70471C00002080B400AF034B1B6892
:100444001846BD465DF8047B704700BF1C000020C1
:1004540080B584B000AF7860FFF7EEFFF86000BFAE
:10046400FFF7EAFF0246FB68D31A7A689A42F7D884
:1004740000BF00BF1037BD4680BD80B500AF4FF050
:10048400FF30FFF739FFFFF7C9FF00BF80BD000051
:1004940080B483B000AF0346FB7197F90730002B9B
:1004A4000CDBFB7903F01F02074997F907305B095E
:1004B400012000FA02F2603341F8232000BF0C3718
:1004C400BD465DF8047B704700E100E080B483B072
:1004D40000AF03463960FB7197F90730002B0ADB44
:1004E4003B68DAB20C4997F907301201D2B20B44D7
:1004F40083F800230AE03B68DAB20849FB7903F089
:100504000F03043B1201D2B20B441A7600BF0C371E
:10051400BD465DF8047B704700E100E000ED00E0BB
:1005240080B582B000AF78607B68013BB3F1807F17
:1005340001D301230FE00A4A7B68013B53600F217A
:100544004FF0FF30FFF7C2FF054B00229A60044BC7
:1005540007221A60002318460837BD4680BD00BF35
:1005640010E000E080B500AFFFF7E4FE0848FFF7B5
:10057400D7FFFFF785FE074B1B68012BFBD1FFF765
:1005840027FEFA20FFF764FF024B00221A60F2E70D
:10059400204801002000002080B500AF2820FFF78C
:1005A40077FF054B5B69044A43F400535361034BE3
:1005B40001221A6000BF80BD003C014020000020E1
:1005C40080B400AF064BD3F88830054A43F4700377
:1005D400C2F8883000BFBD465DF8047B704700BF99
:1005E40000ED00E0DFF834D00D480E490E4A002338
:1005F40002E0D458C4500433C4188C42F9D30B4AD3
:100604000B4C002301E013600432A242FBD3FFF73A
:10061400D7FF00F011F8FFF7A5FF70470080012015
:100624000000002000000020A406000800000020B4
:1006340024000020FEE7000070B50D4D0D4C641B36
:10064400A4100026A64209D10B4D0C4C00F018F85A
:10065400641BA4100026A64205D170BD55F8043BC6
:1006640098470136EEE755F8043B98470136F2E720
:100674009C0600089C0600089C060008A0060008CA
:10068400F8B500BFF8BC08BC9E467047F8B500BF7B
:08069400F8BC08BC9E4670474B
:04069C00B901000898
:0406A00095010008B8
:04000005080005E901
:00000001FF
