:020000040800F2
:1000000000800120450500089505000895050008B9
:1000100095050008950500089505000800000000FA
:10002000000000000000000000000000950500082E
:1000300095050008000000009505000895030008DC
:100040009505000895050008950500089505000828
:100050009505000895050008950500089505000818
:100060009505000895050008950500089505000808
:1000700095050008950500089505000895050008F8
:10008000950500089505000895050008000000008A
:1000900000000000000000000000000095050008BE
:1000A00095050008950500089505000895050008C8
:1000B00095050008950500089505000895050008B8
:1000C00095050008950500089505000895050008A8
:1000D000950500089505000895050008000000003A
:1000E000950500089505000895050008000000002A
:1000F000000000000000000000000000950500085E
:100100000000000095050008950500089505000809
:1001100000000000000000000000000000000000DF
:100120009505000895050008950500089505000847
:10013000950500080000000000000000000000001D
:10014000000000000000000000000000950500080D
:100150009505000895050008950500089505000817
:10016000950500089505000800000000000000004B
:10017000000000000000000000000000000000007F
:1001800000000000950500080000000000000000CD
:0401900095050008C9
:1001940010B5054C237833B9044B13B10448AFF3BD
:1001A40000800123237010BD000000200000000027
:1001B400E005000808B5034B1BB103490348AFF33E
:1001C400008008BD0000000004000020E0050008D5
:1001D40080B400AF144B1B6B134A43F00403136346
:1001E400124B1B68114A23F0406313600F4B5B688A
:1001F4000E4A23F4005353600C4B9B680B4A23F0C4
:1002040040639360094BDB68084A23F04063D36082
:10021400064BDB68054A63F08063D36000BFBD46CC
:100224005DF8047B704700BF0038024000080240BC
:1002340080B400AF054B5B69044A83F0200353612B
:1002440000BFBD465DF8047B704700BF000002405C
:1002540080B483B000AF0346FB7197F90730002BDD
:100264000CDBFB7903F01F02074997F907305B09A0
:10027400012000FA02F2603341F8232000BF0C375A
:10028400BD465DF8047B704700E100E080B400AF38
:10029400364B5B68354A23F03F035360334B5B684E
:1002A400324A43F4A8535360304B304A5B6853607E
:1002B4002E4B5B682D4A43F0040353602B4B1B68A1
:1002C4002A4A43F48033136000BF284B1B6803F4AD
:1002D4000033002BF9D0254B5B68244A43F4800398
:1002E4005360224B1B68214A43F08073136000BFA4
:1002F4001E4B1B6803F00073002BF9D01C4B1B68CA
:100304001B4A23F007031360194B1B68184A43F474
:1003140080731360164B1B68154A43F00203136085
:10032400124B9B68114A23F0030393600F4B9B68A5
:100334000E4A43F00203936000BF0C4B9B6803F02A
:100344000803002BF9D0094B084A9B689360074BBC
:100354009B68064A43F480539360044B034A9B68AA
:10036400936000BFBD465DF8047B704700380240CF
:10037400003C024080B400AF044B1B680133034AC5
:10038400136000BFBD465DF8047B70471C0000206D
:1003940080B500AF4FF0FF30FFF75AFFFFF7EAFFD9
:1003A40000BF80BD80B400AF154B1B6C144A43F0F2
:1003B400010313644FF080431B684FF0804223F025
:1003C400100313604FF080431B684FF0804243F0EA
:1003D400080313604FF080435B684FF0804223F0C2
:1003E400700353604FF0804300229A624FF08043C1
:1003F40042F2CF02DA6200BFBD465DF8047B70476B
:100404000038024080B483B000AF78607A68134645
:100414009B0013445B004FF08042013B93624FF01A
:1004240080431B684FF0804243F00103136000BF18
:100434004FF080431B6903F00103002BF8D04FF009
:1004440080431B694FF0804223F00103136100BF16
:100454000C37BD465DF8047B7047000080B483B060
:1004640000AF03463960FB7197F90730002B0ADBB4
:100474003B68DAB20C4997F907301201D2B20B4447
:1004840083F800230AE03B68DAB20849FB7903F0F9
:100494000F03043B1201D2B20B441A7600BF0C378F
:1004A400BD465DF8047B704700E100E000ED00E02C
:1004B40080B582B000AF78607B68013BB3F1807F88
:1004C40001D301230FE00A4A7B68013B53600F21EB
:1004D4004FF0FF30FFF7C2FF054B00229A60044B38
:1004E40007221A60002318460837BD4680BD00BFA6
:1004F40010E000E080B500AFFFF7C8FE0648FFF744
:10050400D7FFFFF765FEFFF74DFFFFF791FEFA20D7
:10051400FFF778FFF9E700BF2048010080B400AF7F
:10052400064BD3F88830054A43F47003C2F8883088
:1005340000BFBD465DF8047B704700BF00ED00E0DE
:10054400DFF834D00D480E490E4A002302E0D45897
:10055400C4500433C4188C42F9D30B4A0B4C002307
:1005640001E013600432A242FBD3FFF7D7FF00F08F
:1005740011F8FFF7BFFF7047008001200000002042
:1005840000000020000600080000002020000020D9
:10059400FEE7000070B50D4D0D4C641BA410002641
:1005A400A64209D10B4D0C4C00F018F8641BA410A2
:1005B4000026A64205D170BD55F8043B9847013684
:1005C400EEE755F8043B98470136F2E7F8050008D2
:1005D400F8050008F8050008FC050008F8B500BF98
:1005E400F8BC08BC9E467047F8B500BFF8BC08BC10
:0405F4009E46704768
:0405F800B90100083D
:0405FC00950100085D
:0400000508000545A5
:00000001FF
