:020000040800F2
:100000000080012075030008C5030008C50300082F
:10001000C5030008C5030008C50300080000000070
:10002000000000000000000000000000C503000800
:10003000C503000800000000C5030008C503000850
:10004000C5030008C5030008C5030008C503000870
:10005000C5030008C5030008C5030008C503000860
:10006000C5030008C5030008C5030008C503000850
:10007000C5030008C5030008C5030008C503000840
:10008000C5030008C5030008C50300080000000000
:10009000000000000000000000000000C503000890
:1000A000C5030008C5030008C5030008C503000810
:1000B000C5030008C5030008C5030008C503000800
:1000C000C5030008C5030008C5030008C5030008F0
:1000D000C5030008C5030008C503000800000000B0
:1000E000C5030008C5030008C503000800000000A0
:1000F000000000000000000000000000C503000830
:1001000000000000C5030008C5030008C50300087F
:1001100000000000000000000000000000000000DF
:10012000C5030008C5030008C5030008C50300088F
:10013000C5030008000000000000000000000000EF
:10014000000000000000000000000000C5030008DF
:10015000C5030008C5030008C5030008C50300085F
:10016000C5030008C50300080000000000000000EF
:10017000000000000000000000000000000000007F
:1001800000000000C503000800000000000000009F
:04019000C50300089B
:1001940010B5054C237833B9044B13B10448AFF3BD
:1001A40000800123237010BD000000200000000027
:1001B4001004000808B5034B1BB103490348AFF30F
:1001C400008008BD000000000400002010040008A6
:1001D40080B400AF144B1B6B134A43F00103136349
:1001E400124B1B68114A23F4406313600F4B1B68C6
:1001F4000E4A43F4806313600C4B5B680B4A23F094
:1002040020035360094B9B68084A23F440639360BE
:10021400064BDB68054A23F44063D36000BFBD4648
:100224005DF8047B704700BF0038024000000240C4
:1002340080B400AF054B5B69044A83F0200353612B
:1002440000BFBD465DF8047B704700BF000002405C
:1002540080B400AF364B5B68354A23F03F035360EC
:10026400334B5B68324A43F4A8535360304B304AF3
:100274005B6853602E4B5B682D4A43F00403536064
:100284002B4B1B682A4A43F48033136000BF284B6E
:100294001B6803F40033002BF9D0254B5B68244A18
:1002A40043F480035360224B1B68214A43F080735C
:1002B400136000BF1E4B1B6803F00073002BF9D0C2
:1002C4001C4B1B681B4A23F007031360194B1B6864
:1002D400184A43F480731360164B1B68154A43F0A5
:1002E40002031360124B9B68114A23F003039360CB
:1002F4000F4B9B680E4A43F00203936000BF0C4B04
:100304009B6803F00C03002BF9D0094B084A9B6847
:100314009360074B9B68064A43F480539360044BF5
:10032400034A9B68936000BFBD465DF8047B704739
:1003340000380240003C024080B500AFFFF788FF60
:10034400FFF746FFFFF774FFFCE7000080B400AF3F
:10035400064BD3F88830054A43F47003C2F888305A
:1003640000BFBD465DF8047B704700BF00ED00E0B0
:10037400DFF834D00D480E490E4A002302E0D45869
:10038400C4500433C4188C42F9D30B4A0B4C0023D9
:1003940001E013600432A242FBD3FFF7D7FF00F061
:1003A40011F8FFF7C9FF704700800120000000200A
:1003B4000000002030040008000000201C00002081
:1003C400FEE7000070B50D4D0D4C641BA410002613
:1003D400A64209D10B4D0C4C00F018F8641BA41074
:1003E4000026A64205D170BD55F8043B9847013656
:1003F400EEE755F8043B98470136F2E72804000875
:1004040028040008280400082C040008F8B500BFDC
:10041400F8BC08BC9E467047F8B500BFF8BC08BCE1
:040424009E46704739
:04042800B90100080E
:04042C00950100082E
:040000050800037577
:00000001FF
